{
  "contractName": "BlockchainPoll",
  "abi": [
    {
      "inputs": [],
      "stateMutability": "nonpayable",
      "type": "constructor"
    },
    {
      "inputs": [
        {
          "internalType": "string",
          "name": "_name",
          "type": "string"
        },
        {
          "internalType": "string",
          "name": "_question",
          "type": "string"
        },
        {
          "internalType": "string[]",
          "name": "_optionlist",
          "type": "string[]"
        }
      ],
      "name": "createPoll",
      "outputs": [],
      "stateMutability": "nonpayable",
      "type": "function"
    },
    {
      "inputs": [
        {
          "internalType": "string",
          "name": "_name",
          "type": "string"
        },
        {
          "internalType": "string",
          "name": "_option",
          "type": "string"
        }
      ],
      "name": "vote",
      "outputs": [],
      "stateMutability": "nonpayable",
      "type": "function"
    },
    {
      "inputs": [
        {
          "internalType": "string",
          "name": "_name",
          "type": "string"
        }
      ],
      "name": "lookUpnameToQuestionInfo",
      "outputs": [
        {
          "internalType": "string",
          "name": "",
          "type": "string"
        }
      ],
      "stateMutability": "view",
      "type": "function"
    },
    {
      "inputs": [
        {
          "internalType": "string",
          "name": "_name",
          "type": "string"
        }
      ],
      "name": "lookUpnameToOptions",
      "outputs": [
        {
          "internalType": "string[]",
          "name": "",
          "type": "string[]"
        }
      ],
      "stateMutability": "view",
      "type": "function"
    },
    {
      "inputs": [
        {
          "internalType": "string",
          "name": "_name",
          "type": "string"
        }
      ],
      "name": "lookUpnameToVotes",
      "outputs": [
        {
          "internalType": "uint256[]",
          "name": "",
          "type": "uint256[]"
        }
      ],
      "stateMutability": "view",
      "type": "function"
    }
  ],
  "bytecode": "0x608060405234801561001057600080fd5b5033600360006101000a81548173ffffffffffffffffffffffffffffffffffffffff021916908373ffffffffffffffffffffffffffffffffffffffff1602179055506111a2806100616000396000f3fe608060405234801561001057600080fd5b50600436106100575760003560e01c80637ae4d57e1461005c578063946671211461008c578063b9a7ab70146100bc578063cfba7a09146100ec578063e8d5940d14610108575b600080fd5b61007660048036038101906100719190610a41565b610124565b6040516100839190610b12565b60405180910390f35b6100a660048036038101906100a19190610a41565b610247565b6040516100b39190610c40565b60405180910390f35b6100d660048036038101906100d19190610a41565b6103b1565b6040516100e39190610d2a565b60405180910390f35b61010660048036038101906101019190610e32565b61049a565b005b610122600480360381019061011d9190610ed9565b610664565b005b606060006001836040516101389190610f8d565b9081526020016040518091039020600001805461015490610fd3565b905011610196576040517f08c379a000000000000000000000000000000000000000000000000000000000815260040161018d90611050565b60405180910390fd5b6001826040516101a69190610f8d565b908152602001604051809103902060010180546101c290610fd3565b80601f01602080910402602001604051908101604052809291908181526020018280546101ee90610fd3565b801561023b5780601f106102105761010080835404028352916020019161023b565b820191906000526020600020905b81548152906001019060200180831161021e57829003601f168201915b50505050509050919050565b6060600060018360405161025b9190610f8d565b9081526020016040518091039020600001805461027790610fd3565b9050116102b9576040517f08c379a00000000000000000000000000000000000000000000000000000000081526004016102b090611050565b60405180910390fd5b6001826040516102c99190610f8d565b9081526020016040518091039020600201805480602002602001604051908101604052809291908181526020016000905b828210156103a657838290600052602060002001805461031990610fd3565b80601f016020809104026020016040519081016040528092919081815260200182805461034590610fd3565b80156103925780601f1061036757610100808354040283529160200191610392565b820191906000526020600020905b81548152906001019060200180831161037557829003601f168201915b5050505050815260200190600101906102fa565b505050509050919050565b606060006001836040516103c59190610f8d565b908152602001604051809103902060000180546103e190610fd3565b905011610423576040517f08c379a000000000000000000000000000000000000000000000000000000000815260040161041a90611050565b60405180910390fd5b6001826040516104339190610f8d565b908152602001604051809103902060030180548060200260200160405190810160405280929190818152602001828054801561048e57602002820191906000526020600020905b81548152602001906001019080831161047a575b50505050509050919050565b6000815167ffffffffffffffff8111156104b7576104b6610916565b5b6040519080825280602002602001820160405280156104e55781602001602082028036833780820191505090505b50905060005b82518110156105445780600284838151811061050a57610509611070565b5b602002602001015160405161051f9190610f8d565b908152602001604051809103902081905550808061053c906110ce565b9150506104eb565b506040518060a001604052808581526020018481526020018381526020018281526020013373ffffffffffffffffffffffffffffffffffffffff168152506001856040516105929190610f8d565b908152602001604051809103902060008201518160000190805190602001906105bc929190610733565b5060208201518160010190805190602001906105d9929190610733565b5060408201518160020190805190602001906105f69291906107b9565b506060820151816003019080519060200190610613929190610819565b5060808201518160040160006101000a81548173ffffffffffffffffffffffffffffffffffffffff021916908373ffffffffffffffffffffffffffffffffffffffff16021790555090505050505050565b60006002826040516106769190610f8d565b90815260200160405180910390205490506106d76001808560405161069b9190610f8d565b908152602001604051809103902060030183815481106106be576106bd611070565b5b906000526020600020015461071d90919063ffffffff16565b6001846040516106e79190610f8d565b9081526020016040518091039020600301828154811061070a57610709611070565b5b9060005260206000200181905550505050565b6000818361072b9190611116565b905092915050565b82805461073f90610fd3565b90600052602060002090601f01602090048101928261076157600085556107a8565b82601f1061077a57805160ff19168380011785556107a8565b828001600101855582156107a8579182015b828111156107a757825182559160200191906001019061078c565b5b5090506107b59190610866565b5090565b828054828255906000526020600020908101928215610808579160200282015b828111156108075782518290805190602001906107f7929190610733565b50916020019190600101906107d9565b5b5090506108159190610883565b5090565b828054828255906000526020600020908101928215610855579160200282015b82811115610854578251825591602001919060010190610839565b5b5090506108629190610866565b5090565b5b8082111561087f576000816000905550600101610867565b5090565b5b808211156108a3576000818161089a91906108a7565b50600101610884565b5090565b5080546108b390610fd3565b6000825580601f106108c557506108e4565b601f0160209004906000526020600020908101906108e39190610866565b5b50565b6000604051905090565b600080fd5b600080fd5b600080fd5b600080fd5b6000601f19601f8301169050919050565b7f4e487b7100000000000000000000000000000000000000000000000000000000600052604160045260246000fd5b61094e82610905565b810181811067ffffffffffffffff8211171561096d5761096c610916565b5b80604052505050565b60006109806108e7565b905061098c8282610945565b919050565b600067ffffffffffffffff8211156109ac576109ab610916565b5b6109b582610905565b9050602081019050919050565b82818337600083830152505050565b60006109e46109df84610991565b610976565b905082815260208101848484011115610a00576109ff610900565b5b610a0b8482856109c2565b509392505050565b600082601f830112610a2857610a276108fb565b5b8135610a388482602086016109d1565b91505092915050565b600060208284031215610a5757610a566108f1565b5b600082013567ffffffffffffffff811115610a7557610a746108f6565b5b610a8184828501610a13565b91505092915050565b600081519050919050565b600082825260208201905092915050565b60005b83811015610ac4578082015181840152602081019050610aa9565b83811115610ad3576000848401525b50505050565b6000610ae482610a8a565b610aee8185610a95565b9350610afe818560208601610aa6565b610b0781610905565b840191505092915050565b60006020820190508181036000830152610b2c8184610ad9565b905092915050565b600081519050919050565b600082825260208201905092915050565b6000819050602082019050919050565b600082825260208201905092915050565b6000610b7c82610a8a565b610b868185610b60565b9350610b96818560208601610aa6565b610b9f81610905565b840191505092915050565b6000610bb68383610b71565b905092915050565b6000602082019050919050565b6000610bd682610b34565b610be08185610b3f565b935083602082028501610bf285610b50565b8060005b85811015610c2e5784840389528151610c0f8582610baa565b9450610c1a83610bbe565b925060208a01995050600181019050610bf6565b50829750879550505050505092915050565b60006020820190508181036000830152610c5a8184610bcb565b905092915050565b600081519050919050565b600082825260208201905092915050565b6000819050602082019050919050565b6000819050919050565b610ca181610c8e565b82525050565b6000610cb38383610c98565b60208301905092915050565b6000602082019050919050565b6000610cd782610c62565b610ce18185610c6d565b9350610cec83610c7e565b8060005b83811015610d1d578151610d048882610ca7565b9750610d0f83610cbf565b925050600181019050610cf0565b5085935050505092915050565b60006020820190508181036000830152610d448184610ccc565b905092915050565b600067ffffffffffffffff821115610d6757610d66610916565b5b602082029050602081019050919050565b600080fd5b6000610d90610d8b84610d4c565b610976565b90508083825260208201905060208402830185811115610db357610db2610d78565b5b835b81811015610dfa57803567ffffffffffffffff811115610dd857610dd76108fb565b5b808601610de58982610a13565b85526020850194505050602081019050610db5565b5050509392505050565b600082601f830112610e1957610e186108fb565b5b8135610e29848260208601610d7d565b91505092915050565b600080600060608486031215610e4b57610e4a6108f1565b5b600084013567ffffffffffffffff811115610e6957610e686108f6565b5b610e7586828701610a13565b935050602084013567ffffffffffffffff811115610e9657610e956108f6565b5b610ea286828701610a13565b925050604084013567ffffffffffffffff811115610ec357610ec26108f6565b5b610ecf86828701610e04565b9150509250925092565b60008060408385031215610ef057610eef6108f1565b5b600083013567ffffffffffffffff811115610f0e57610f0d6108f6565b5b610f1a85828601610a13565b925050602083013567ffffffffffffffff811115610f3b57610f3a6108f6565b5b610f4785828601610a13565b9150509250929050565b600081905092915050565b6000610f6782610a8a565b610f718185610f51565b9350610f81818560208601610aa6565b80840191505092915050565b6000610f998284610f5c565b915081905092915050565b7f4e487b7100000000000000000000000000000000000000000000000000000000600052602260045260246000fd5b60006002820490506001821680610feb57607f821691505b602082108103610ffe57610ffd610fa4565b5b50919050565b7f54686520506f6c6c206973206e6f74207265666572656e636564000000000000600082015250565b600061103a601a83610a95565b915061104582611004565b602082019050919050565b600060208201905081810360008301526110698161102d565b9050919050565b7f4e487b7100000000000000000000000000000000000000000000000000000000600052603260045260246000fd5b7f4e487b7100000000000000000000000000000000000000000000000000000000600052601160045260246000fd5b60006110d982610c8e565b91507fffffffffffffffffffffffffffffffffffffffffffffffffffffffffffffffff820361110b5761110a61109f565b5b600182019050919050565b600061112182610c8e565b915061112c83610c8e565b9250827fffffffffffffffffffffffffffffffffffffffffffffffffffffffffffffffff038211156111615761116061109f565b5b82820190509291505056fea2646970667358221220af68a79a8f5f808d5d54c0bcc0d314140723f6bac927a06ae2f5013b7a50aec164736f6c634300080d0033",
  "immutableReferences": {},
  "source": "// SPDX-License-Identifier: AEM\npragma solidity >=0.5.16;\nimport \"../node_modules/@openzeppelin/contracts/utils/math/SafeMath.sol\";\n\n//initialize the BlockchainPoll contract\ncontract BlockchainPoll {\n    using SafeMath for uint256;\n    // Star data\n    struct Poll {\n        string name;\n        string question;\n        string[] optionlist;\n        uint[] optionvotes;\n        address owner;\n    }\n\n    mapping (string => Poll) AnsweredQuestions;\n    mapping (string => Poll) PendingQuestions;\n\n    mapping (string => uint256) OptionToIndex;\n    \n    address contractOwner;\n\n    constructor\n                                (\n                                ) \n    {\n        contractOwner = msg.sender;\n    }\n    \n\n    // Create a Poll using the Struct\n    function createPoll(string memory _name, string memory _question, string[] memory _optionlist) public {\n        uint[] memory _optionvotes = new uint[](_optionlist.length);\n        for (uint i=0; i<_optionlist.length; i++) {\n            OptionToIndex[_optionlist[i]] = i;\n        }\n        // Passing the name and tokenId as a parameters\n        PendingQuestions[_name] = Poll({\n            name: _name,\n            question: _question,\n            optionlist:_optionlist,\n            optionvotes:_optionvotes,\n            owner:msg.sender\n        });\n    }\n\n    //Voting function\n    function vote (string memory _name, string memory _option) public {\n        uint index = OptionToIndex[_option];\n        PendingQuestions[_name].optionvotes[index] = PendingQuestions[_name].optionvotes[index].add(1);\n    }\n  \n\n    // Simple functions to return different values from the poll name\n    function lookUpnameToQuestionInfo(string memory _name) \n        public\n        view\n        returns (string memory)\n    {\n        require(bytes(PendingQuestions[_name].name).length > 0, \"The Poll is not referenced\");\n        return PendingQuestions[_name].question;\n    }\n\n    function lookUpnameToOptions(string memory _name)\n        public\n        view\n        returns (string[] memory)\n    {\n        require(bytes(PendingQuestions[_name].name).length > 0, \"The Poll is not referenced\");\n        return PendingQuestions[_name].optionlist;\n    }\n\n    function lookUpnameToVotes(string memory _name)\n        public\n        view\n        returns (uint256[] memory)\n    {\n        require(bytes(PendingQuestions[_name].name).length > 0, \"The Poll is not referenced\");\n        return PendingQuestions[_name].optionvotes;\n    }    \n}\n",
  "sourcePath": "/Users/theowalcot/Documents/Blockchain Showcase Projects/Voting Project/contracts/BlockchainPoll.sol",
  "compiler": {
    "name": "solc",
    "version": "0.8.13+commit.abaa5c0e.Emscripten.clang"
  },
  "schemaVersion": "3.4.8",
  "updatedAt": "2022-11-06T16:59:19.326Z",
  "devdoc": {
    "kind": "dev",
    "methods": {},
    "version": 1
  },
  "userdoc": {
    "kind": "user",
    "methods": {},
    "version": 1
  }
}